{
  "_format": "hh-sol-artifact-1",
  "contractName": "PaymentEscrow",
  "sourceName": "contracts/PaymentEscrow.sol",
  "abi": [
    {
      "anonymous": false,
      "inputs": [
        {
          "indexed": false,
          "internalType": "uint256",
          "name": "productId",
          "type": "uint256"
        },
        {
          "indexed": true,
          "internalType": "address",
          "name": "seller",
          "type": "address"
        }
      ],
      "name": "PaymentApproved",
      "type": "event"
    },
    {
      "anonymous": false,
      "inputs": [
        {
          "indexed": false,
          "internalType": "uint256",
          "name": "productId",
          "type": "uint256"
        },
        {
          "indexed": true,
          "internalType": "address",
          "name": "buyer",
          "type": "address"
        },
        {
          "indexed": true,
          "internalType": "address",
          "name": "seller",
          "type": "address"
        },
        {
          "indexed": false,
          "internalType": "uint256",
          "name": "amount",
          "type": "uint256"
        }
      ],
      "name": "PaymentInitiated",
      "type": "event"
    },
    {
      "anonymous": false,
      "inputs": [
        {
          "indexed": false,
          "internalType": "uint256",
          "name": "productId",
          "type": "uint256"
        },
        {
          "indexed": true,
          "internalType": "address",
          "name": "buyer",
          "type": "address"
        }
      ],
      "name": "PaymentRefunded",
      "type": "event"
    },
    {
      "anonymous": false,
      "inputs": [
        {
          "indexed": false,
          "internalType": "uint256",
          "name": "productId",
          "type": "uint256"
        },
        {
          "indexed": true,
          "internalType": "address",
          "name": "buyer",
          "type": "address"
        }
      ],
      "name": "PaymentRejected",
      "type": "event"
    },
    {
      "anonymous": false,
      "inputs": [
        {
          "indexed": false,
          "internalType": "uint256",
          "name": "productId",
          "type": "uint256"
        },
        {
          "indexed": true,
          "internalType": "address",
          "name": "seller",
          "type": "address"
        }
      ],
      "name": "PaymentReleased",
      "type": "event"
    },
    {
      "inputs": [
        {
          "internalType": "uint256",
          "name": "productId",
          "type": "uint256"
        }
      ],
      "name": "approvePayment",
      "outputs": [],
      "stateMutability": "nonpayable",
      "type": "function"
    },
    {
      "inputs": [
        {
          "internalType": "uint256",
          "name": "productId",
          "type": "uint256"
        },
        {
          "internalType": "address",
          "name": "seller",
          "type": "address"
        }
      ],
      "name": "initiatePayment",
      "outputs": [],
      "stateMutability": "payable",
      "type": "function"
    },
    {
      "inputs": [
        {
          "internalType": "uint256",
          "name": "",
          "type": "uint256"
        }
      ],
      "name": "payments",
      "outputs": [
        {
          "internalType": "address",
          "name": "buyer",
          "type": "address"
        },
        {
          "internalType": "address",
          "name": "seller",
          "type": "address"
        },
        {
          "internalType": "uint256",
          "name": "amount",
          "type": "uint256"
        },
        {
          "internalType": "bool",
          "name": "isPaid",
          "type": "bool"
        },
        {
          "internalType": "bool",
          "name": "exists",
          "type": "bool"
        }
      ],
      "stateMutability": "view",
      "type": "function"
    },
    {
      "inputs": [
        {
          "internalType": "uint256",
          "name": "productId",
          "type": "uint256"
        }
      ],
      "name": "rejectPayment",
      "outputs": [],
      "stateMutability": "nonpayable",
      "type": "function"
    }
  ],
  "bytecode": "0x6080604052348015600f57600080fd5b50610e2b8061001f6000396000f3fe60806040526004361061003f5760003560e01c806387d81789146100445780638d920b0214610085578063de14c818146100ae578063f43aab63146100d7575b600080fd5b34801561005057600080fd5b5061006b600480360381019061006691906109c1565b6100f3565b60405161007c959493929190610a59565b60405180910390f35b34801561009157600080fd5b506100ac60048036038101906100a791906109c1565b610183565b005b3480156100ba57600080fd5b506100d560048036038101906100d091906109c1565b6104b8565b005b6100f160048036038101906100ec9190610ad8565b61072f565b005b60006020528060005260406000206000915090508060000160009054906101000a900473ffffffffffffffffffffffffffffffffffffffff16908060010160009054906101000a900473ffffffffffffffffffffffffffffffffffffffff16908060020154908060030160009054906101000a900460ff16908060030160019054906101000a900460ff16905085565b600080600083815260200190815260200160002090508060030160019054906101000a900460ff166101ea576040517f08c379a00000000000000000000000000000000000000000000000000000000081526004016101e190610b75565b60405180910390fd5b8060010160009054906101000a900473ffffffffffffffffffffffffffffffffffffffff1673ffffffffffffffffffffffffffffffffffffffff163373ffffffffffffffffffffffffffffffffffffffff161461027c576040517f08c379a000000000000000000000000000000000000000000000000000000000815260040161027390610be1565b60405180910390fd5b8060030160009054906101000a900460ff16156102ce576040517f08c379a00000000000000000000000000000000000000000000000000000000081526004016102c590610c4d565b60405180910390fd5b8060000160009054906101000a900473ffffffffffffffffffffffffffffffffffffffff1673ffffffffffffffffffffffffffffffffffffffff166108fc82600201549081150290604051600060405180830381858888f1935050505015801561033c573d6000803e3d6000fd5b50600080838152602001908152602001600020600080820160006101000a81549073ffffffffffffffffffffffffffffffffffffffff02191690556001820160006101000a81549073ffffffffffffffffffffffffffffffffffffffff021916905560028201600090556003820160006101000a81549060ff02191690556003820160016101000a81549060ff021916905550508060000160009054906101000a900473ffffffffffffffffffffffffffffffffffffffff1673ffffffffffffffffffffffffffffffffffffffff167f42bc7e583537b01240a69f67499abda69cc11d344db547692757f768b6d495a08360405161043a9190610c6d565b60405180910390a28060000160009054906101000a900473ffffffffffffffffffffffffffffffffffffffff1673ffffffffffffffffffffffffffffffffffffffff167f515a18b1fcc21296047a050786b19a82acc044529bbdf44eb81b7488b6110623836040516104ac9190610c6d565b60405180910390a25050565b600080600083815260200190815260200160002090508060030160019054906101000a900460ff1661051f576040517f08c379a000000000000000000000000000000000000000000000000000000000815260040161051690610b75565b60405180910390fd5b8060010160009054906101000a900473ffffffffffffffffffffffffffffffffffffffff1673ffffffffffffffffffffffffffffffffffffffff163373ffffffffffffffffffffffffffffffffffffffff16146105b1576040517f08c379a00000000000000000000000000000000000000000000000000000000081526004016105a890610cd4565b60405180910390fd5b8060030160009054906101000a900460ff1615610603576040517f08c379a00000000000000000000000000000000000000000000000000000000081526004016105fa90610c4d565b60405180910390fd5b60018160030160006101000a81548160ff0219169083151502179055508060010160009054906101000a900473ffffffffffffffffffffffffffffffffffffffff1673ffffffffffffffffffffffffffffffffffffffff166108fc82600201549081150290604051600060405180830381858888f1935050505015801561068e573d6000803e3d6000fd5b503373ffffffffffffffffffffffffffffffffffffffff167f7c0257138bc682dcff9eb84d702bf9118b11a37ab9af95828ea7332c078eb93f836040516106d59190610c6d565b60405180910390a23373ffffffffffffffffffffffffffffffffffffffff167f4156924bd7e340b19303af17bf5323d66fae5dc16f350319092e0839c8543683836040516107239190610c6d565b60405180910390a25050565b60003411610772576040517f08c379a000000000000000000000000000000000000000000000000000000000815260040161076990610d40565b60405180910390fd5b60008083815260200190815260200160002060030160019054906101000a900460ff16156107d5576040517f08c379a00000000000000000000000000000000000000000000000000000000081526004016107cc90610dac565b60405180910390fd5b6040518060a001604052803373ffffffffffffffffffffffffffffffffffffffff1681526020018273ffffffffffffffffffffffffffffffffffffffff1681526020013481526020016000151581526020016001151581525060008084815260200190815260200160002060008201518160000160006101000a81548173ffffffffffffffffffffffffffffffffffffffff021916908373ffffffffffffffffffffffffffffffffffffffff16021790555060208201518160010160006101000a81548173ffffffffffffffffffffffffffffffffffffffff021916908373ffffffffffffffffffffffffffffffffffffffff1602179055506040820151816002015560608201518160030160006101000a81548160ff02191690831515021790555060808201518160030160016101000a81548160ff0219169083151502179055509050508073ffffffffffffffffffffffffffffffffffffffff163373ffffffffffffffffffffffffffffffffffffffff167fe064501ff0c8345e3c252ac92add47e0e28225460e48f354750dfda9d72df751843460405161097a929190610dcc565b60405180910390a35050565b600080fd5b6000819050919050565b61099e8161098b565b81146109a957600080fd5b50565b6000813590506109bb81610995565b92915050565b6000602082840312156109d7576109d6610986565b5b60006109e5848285016109ac565b91505092915050565b600073ffffffffffffffffffffffffffffffffffffffff82169050919050565b6000610a19826109ee565b9050919050565b610a2981610a0e565b82525050565b610a388161098b565b82525050565b60008115159050919050565b610a5381610a3e565b82525050565b600060a082019050610a6e6000830188610a20565b610a7b6020830187610a20565b610a886040830186610a2f565b610a956060830185610a4a565b610aa26080830184610a4a565b9695505050505050565b610ab581610a0e565b8114610ac057600080fd5b50565b600081359050610ad281610aac565b92915050565b60008060408385031215610aef57610aee610986565b5b6000610afd858286016109ac565b9250506020610b0e85828601610ac3565b9150509250929050565b600082825260208201905092915050565b7f5061796d656e7420646f6573206e6f742065786973742e000000000000000000600082015250565b6000610b5f601783610b18565b9150610b6a82610b29565b602082019050919050565b60006020820190508181036000830152610b8e81610b52565b9050919050565b7f4f6e6c792073656c6c65722063616e2072656a6563742e000000000000000000600082015250565b6000610bcb601783610b18565b9150610bd682610b95565b602082019050919050565b60006020820190508181036000830152610bfa81610bbe565b9050919050565b7f5061796d656e7420616c72656164792070726f6365737365642e000000000000600082015250565b6000610c37601a83610b18565b9150610c4282610c01565b602082019050919050565b60006020820190508181036000830152610c6681610c2a565b9050919050565b6000602082019050610c826000830184610a2f565b92915050565b7f4f6e6c792073656c6c65722063616e20617070726f76652e0000000000000000600082015250565b6000610cbe601883610b18565b9150610cc982610c88565b602082019050919050565b60006020820190508181036000830152610ced81610cb1565b9050919050565b7f4d7573742073656e64207061796d656e742e0000000000000000000000000000600082015250565b6000610d2a601283610b18565b9150610d3582610cf4565b602082019050919050565b60006020820190508181036000830152610d5981610d1d565b9050919050565b7f5061796d656e7420616c7265616479206578697374732e000000000000000000600082015250565b6000610d96601783610b18565b9150610da182610d60565b602082019050919050565b60006020820190508181036000830152610dc581610d89565b9050919050565b6000604082019050610de16000830185610a2f565b610dee6020830184610a2f565b939250505056fea2646970667358221220f4a30c4571406afd8c19a2064ed0138e5401e64342d74321ea371af57ef7da6b64736f6c634300081c0033",
  "linkReferences": {},
  "deployedLinkReferences": {}
}