{
  "_format": "hh-sol-artifact-1",
  "contractName": "MintNFT",
  "sourceName": "contracts/MintNFT.sol",
  "abi": [
    {
      "inputs": [],
      "stateMutability": "nonpayable",
      "type": "constructor"
    },
    {
      "inputs": [
        {
          "internalType": "address",
          "name": "sender",
          "type": "address"
        },
        {
          "internalType": "uint256",
          "name": "tokenId",
          "type": "uint256"
        },
        {
          "internalType": "address",
          "name": "owner",
          "type": "address"
        }
      ],
      "name": "ERC721IncorrectOwner",
      "type": "error"
    },
    {
      "inputs": [
        {
          "internalType": "address",
          "name": "operator",
          "type": "address"
        },
        {
          "internalType": "uint256",
          "name": "tokenId",
          "type": "uint256"
        }
      ],
      "name": "ERC721InsufficientApproval",
      "type": "error"
    },
    {
      "inputs": [
        {
          "internalType": "address",
          "name": "approver",
          "type": "address"
        }
      ],
      "name": "ERC721InvalidApprover",
      "type": "error"
    },
    {
      "inputs": [
        {
          "internalType": "address",
          "name": "operator",
          "type": "address"
        }
      ],
      "name": "ERC721InvalidOperator",
      "type": "error"
    },
    {
      "inputs": [
        {
          "internalType": "address",
          "name": "owner",
          "type": "address"
        }
      ],
      "name": "ERC721InvalidOwner",
      "type": "error"
    },
    {
      "inputs": [
        {
          "internalType": "address",
          "name": "receiver",
          "type": "address"
        }
      ],
      "name": "ERC721InvalidReceiver",
      "type": "error"
    },
    {
      "inputs": [
        {
          "internalType": "address",
          "name": "sender",
          "type": "address"
        }
      ],
      "name": "ERC721InvalidSender",
      "type": "error"
    },
    {
      "inputs": [
        {
          "internalType": "uint256",
          "name": "tokenId",
          "type": "uint256"
        }
      ],
      "name": "ERC721NonexistentToken",
      "type": "error"
    },
    {
      "inputs": [
        {
          "internalType": "address",
          "name": "owner",
          "type": "address"
        }
      ],
      "name": "OwnableInvalidOwner",
      "type": "error"
    },
    {
      "inputs": [
        {
          "internalType": "address",
          "name": "account",
          "type": "address"
        }
      ],
      "name": "OwnableUnauthorizedAccount",
      "type": "error"
    },
    {
      "anonymous": false,
      "inputs": [
        {
          "indexed": true,
          "internalType": "address",
          "name": "owner",
          "type": "address"
        },
        {
          "indexed": true,
          "internalType": "address",
          "name": "approved",
          "type": "address"
        },
        {
          "indexed": true,
          "internalType": "uint256",
          "name": "tokenId",
          "type": "uint256"
        }
      ],
      "name": "Approval",
      "type": "event"
    },
    {
      "anonymous": false,
      "inputs": [
        {
          "indexed": true,
          "internalType": "address",
          "name": "owner",
          "type": "address"
        },
        {
          "indexed": true,
          "internalType": "address",
          "name": "operator",
          "type": "address"
        },
        {
          "indexed": false,
          "internalType": "bool",
          "name": "approved",
          "type": "bool"
        }
      ],
      "name": "ApprovalForAll",
      "type": "event"
    },
    {
      "anonymous": false,
      "inputs": [
        {
          "indexed": true,
          "internalType": "address",
          "name": "previousOwner",
          "type": "address"
        },
        {
          "indexed": true,
          "internalType": "address",
          "name": "newOwner",
          "type": "address"
        }
      ],
      "name": "OwnershipTransferred",
      "type": "event"
    },
    {
      "anonymous": false,
      "inputs": [
        {
          "indexed": true,
          "internalType": "uint256",
          "name": "tokenId",
          "type": "uint256"
        },
        {
          "indexed": true,
          "internalType": "address",
          "name": "recipient",
          "type": "address"
        },
        {
          "indexed": false,
          "internalType": "string",
          "name": "productInfo",
          "type": "string"
        }
      ],
      "name": "ProductMinted",
      "type": "event"
    },
    {
      "anonymous": false,
      "inputs": [
        {
          "indexed": true,
          "internalType": "uint256",
          "name": "tokenId",
          "type": "uint256"
        },
        {
          "indexed": true,
          "internalType": "address",
          "name": "from",
          "type": "address"
        },
        {
          "indexed": true,
          "internalType": "address",
          "name": "to",
          "type": "address"
        }
      ],
      "name": "ProductTransferred",
      "type": "event"
    },
    {
      "anonymous": false,
      "inputs": [
        {
          "indexed": true,
          "internalType": "uint256",
          "name": "tokenId",
          "type": "uint256"
        },
        {
          "indexed": false,
          "internalType": "string",
          "name": "newProductInfo",
          "type": "string"
        }
      ],
      "name": "ProductUpdated",
      "type": "event"
    },
    {
      "anonymous": false,
      "inputs": [
        {
          "indexed": true,
          "internalType": "address",
          "name": "from",
          "type": "address"
        },
        {
          "indexed": true,
          "internalType": "address",
          "name": "to",
          "type": "address"
        },
        {
          "indexed": true,
          "internalType": "uint256",
          "name": "tokenId",
          "type": "uint256"
        }
      ],
      "name": "Transfer",
      "type": "event"
    },
    {
      "inputs": [
        {
          "internalType": "uint256",
          "name": "tokenId",
          "type": "uint256"
        }
      ],
      "name": "_existsPublic",
      "outputs": [
        {
          "internalType": "bool",
          "name": "",
          "type": "bool"
        }
      ],
      "stateMutability": "view",
      "type": "function"
    },
    {
      "inputs": [
        {
          "internalType": "address",
          "name": "to",
          "type": "address"
        },
        {
          "internalType": "uint256",
          "name": "tokenId",
          "type": "uint256"
        }
      ],
      "name": "approve",
      "outputs": [],
      "stateMutability": "nonpayable",
      "type": "function"
    },
    {
      "inputs": [
        {
          "internalType": "address",
          "name": "owner",
          "type": "address"
        }
      ],
      "name": "balanceOf",
      "outputs": [
        {
          "internalType": "uint256",
          "name": "",
          "type": "uint256"
        }
      ],
      "stateMutability": "view",
      "type": "function"
    },
    {
      "inputs": [],
      "name": "getAllContractTokens",
      "outputs": [
        {
          "internalType": "uint256[]",
          "name": "",
          "type": "uint256[]"
        }
      ],
      "stateMutability": "view",
      "type": "function"
    },
    {
      "inputs": [
        {
          "internalType": "uint256",
          "name": "tokenId",
          "type": "uint256"
        }
      ],
      "name": "getApproved",
      "outputs": [
        {
          "internalType": "address",
          "name": "",
          "type": "address"
        }
      ],
      "stateMutability": "view",
      "type": "function"
    },
    {
      "inputs": [
        {
          "internalType": "uint256",
          "name": "tokenId",
          "type": "uint256"
        }
      ],
      "name": "getOwnershipHistory",
      "outputs": [
        {
          "internalType": "address[]",
          "name": "",
          "type": "address[]"
        }
      ],
      "stateMutability": "view",
      "type": "function"
    },
    {
      "inputs": [
        {
          "internalType": "uint256",
          "name": "tokenId",
          "type": "uint256"
        }
      ],
      "name": "getProductDetails",
      "outputs": [
        {
          "internalType": "string",
          "name": "",
          "type": "string"
        },
        {
          "internalType": "address",
          "name": "",
          "type": "address"
        }
      ],
      "stateMutability": "view",
      "type": "function"
    },
    {
      "inputs": [
        {
          "internalType": "address",
          "name": "owner",
          "type": "address"
        },
        {
          "internalType": "address",
          "name": "operator",
          "type": "address"
        }
      ],
      "name": "isApprovedForAll",
      "outputs": [
        {
          "internalType": "bool",
          "name": "",
          "type": "bool"
        }
      ],
      "stateMutability": "view",
      "type": "function"
    },
    {
      "inputs": [
        {
          "internalType": "address",
          "name": "recipient",
          "type": "address"
        },
        {
          "internalType": "string",
          "name": "productInfo",
          "type": "string"
        }
      ],
      "name": "mintProductNFT",
      "outputs": [
        {
          "internalType": "uint256",
          "name": "",
          "type": "uint256"
        }
      ],
      "stateMutability": "nonpayable",
      "type": "function"
    },
    {
      "inputs": [],
      "name": "name",
      "outputs": [
        {
          "internalType": "string",
          "name": "",
          "type": "string"
        }
      ],
      "stateMutability": "view",
      "type": "function"
    },
    {
      "inputs": [],
      "name": "nextTokenId",
      "outputs": [
        {
          "internalType": "uint256",
          "name": "",
          "type": "uint256"
        }
      ],
      "stateMutability": "view",
      "type": "function"
    },
    {
      "inputs": [],
      "name": "owner",
      "outputs": [
        {
          "internalType": "address",
          "name": "",
          "type": "address"
        }
      ],
      "stateMutability": "view",
      "type": "function"
    },
    {
      "inputs": [
        {
          "internalType": "uint256",
          "name": "tokenId",
          "type": "uint256"
        }
      ],
      "name": "ownerOf",
      "outputs": [
        {
          "internalType": "address",
          "name": "",
          "type": "address"
        }
      ],
      "stateMutability": "view",
      "type": "function"
    },
    {
      "inputs": [
        {
          "internalType": "uint256",
          "name": "",
          "type": "uint256"
        },
        {
          "internalType": "uint256",
          "name": "",
          "type": "uint256"
        }
      ],
      "name": "ownershipHistory",
      "outputs": [
        {
          "internalType": "address",
          "name": "",
          "type": "address"
        }
      ],
      "stateMutability": "view",
      "type": "function"
    },
    {
      "inputs": [
        {
          "internalType": "uint256",
          "name": "",
          "type": "uint256"
        }
      ],
      "name": "productMetadata",
      "outputs": [
        {
          "internalType": "string",
          "name": "",
          "type": "string"
        }
      ],
      "stateMutability": "view",
      "type": "function"
    },
    {
      "inputs": [],
      "name": "renounceOwnership",
      "outputs": [],
      "stateMutability": "nonpayable",
      "type": "function"
    },
    {
      "inputs": [
        {
          "internalType": "address",
          "name": "from",
          "type": "address"
        },
        {
          "internalType": "address",
          "name": "to",
          "type": "address"
        },
        {
          "internalType": "uint256",
          "name": "tokenId",
          "type": "uint256"
        }
      ],
      "name": "safeTransferFrom",
      "outputs": [],
      "stateMutability": "nonpayable",
      "type": "function"
    },
    {
      "inputs": [
        {
          "internalType": "address",
          "name": "from",
          "type": "address"
        },
        {
          "internalType": "address",
          "name": "to",
          "type": "address"
        },
        {
          "internalType": "uint256",
          "name": "tokenId",
          "type": "uint256"
        },
        {
          "internalType": "bytes",
          "name": "data",
          "type": "bytes"
        }
      ],
      "name": "safeTransferFrom",
      "outputs": [],
      "stateMutability": "nonpayable",
      "type": "function"
    },
    {
      "inputs": [
        {
          "internalType": "address",
          "name": "operator",
          "type": "address"
        },
        {
          "internalType": "bool",
          "name": "approved",
          "type": "bool"
        }
      ],
      "name": "setApprovalForAll",
      "outputs": [],
      "stateMutability": "nonpayable",
      "type": "function"
    },
    {
      "inputs": [
        {
          "internalType": "bytes4",
          "name": "interfaceId",
          "type": "bytes4"
        }
      ],
      "name": "supportsInterface",
      "outputs": [
        {
          "internalType": "bool",
          "name": "",
          "type": "bool"
        }
      ],
      "stateMutability": "view",
      "type": "function"
    },
    {
      "inputs": [],
      "name": "symbol",
      "outputs": [
        {
          "internalType": "string",
          "name": "",
          "type": "string"
        }
      ],
      "stateMutability": "view",
      "type": "function"
    },
    {
      "inputs": [
        {
          "internalType": "uint256",
          "name": "tokenId",
          "type": "uint256"
        }
      ],
      "name": "tokenURI",
      "outputs": [
        {
          "internalType": "string",
          "name": "",
          "type": "string"
        }
      ],
      "stateMutability": "view",
      "type": "function"
    },
    {
      "inputs": [
        {
          "internalType": "address",
          "name": "from",
          "type": "address"
        },
        {
          "internalType": "address",
          "name": "to",
          "type": "address"
        },
        {
          "internalType": "uint256",
          "name": "tokenId",
          "type": "uint256"
        }
      ],
      "name": "transferFrom",
      "outputs": [],
      "stateMutability": "nonpayable",
      "type": "function"
    },
    {
      "inputs": [
        {
          "internalType": "address",
          "name": "newOwner",
          "type": "address"
        }
      ],
      "name": "transferOwnership",
      "outputs": [],
      "stateMutability": "nonpayable",
      "type": "function"
    }
  ],
  "bytecode": "0x608060405234801561001057600080fd5b50336040518060400160405280600a81526020017f50726f647563744e4654000000000000000000000000000000000000000000008152506040518060400160405280600481526020017f504e465400000000000000000000000000000000000000000000000000000000815250816000908161008d919061043d565b50806001908161009d919061043d565b505050600073ffffffffffffffffffffffffffffffffffffffff168173ffffffffffffffffffffffffffffffffffffffff16036101125760006040517f1e4fbdf70000000000000000000000000000000000000000000000000000000081526004016101099190610550565b60405180910390fd5b6101218161012760201b60201c565b5061056b565b6000600660009054906101000a900473ffffffffffffffffffffffffffffffffffffffff16905081600660006101000a81548173ffffffffffffffffffffffffffffffffffffffff021916908373ffffffffffffffffffffffffffffffffffffffff1602179055508173ffffffffffffffffffffffffffffffffffffffff168173ffffffffffffffffffffffffffffffffffffffff167f8be0079c531659141344cd1fd0a4f28419497f9722a3daafe3b4186f6b6457e060405160405180910390a35050565b600081519050919050565b7f4e487b7100000000000000000000000000000000000000000000000000000000600052604160045260246000fd5b7f4e487b7100000000000000000000000000000000000000000000000000000000600052602260045260246000fd5b6000600282049050600182168061026e57607f821691505b60208210810361028157610280610227565b5b50919050565b60008190508160005260206000209050919050565b60006020601f8301049050919050565b600082821b905092915050565b6000600883026102e97fffffffffffffffffffffffffffffffffffffffffffffffffffffffffffffffff826102ac565b6102f386836102ac565b95508019841693508086168417925050509392505050565b6000819050919050565b6000819050919050565b600061033a6103356103308461030b565b610315565b61030b565b9050919050565b6000819050919050565b6103548361031f565b61036861036082610341565b8484546102b9565b825550505050565b600090565b61037d610370565b61038881848461034b565b505050565b5b818110156103ac576103a1600082610375565b60018101905061038e565b5050565b601f8211156103f1576103c281610287565b6103cb8461029c565b810160208510156103da578190505b6103ee6103e68561029c565b83018261038d565b50505b505050565b600082821c905092915050565b6000610414600019846008026103f6565b1980831691505092915050565b600061042d8383610403565b9150826002028217905092915050565b610446826101ed565b67ffffffffffffffff81111561045f5761045e6101f8565b5b6104698254610256565b6104748282856103b0565b600060209050601f8311600181146104a75760008415610495578287015190505b61049f8582610421565b865550610507565b601f1984166104b586610287565b60005b828110156104dd578489015182556001820191506020850194506020810190506104b8565b868310156104fa57848901516104f6601f891682610403565b8355505b6001600288020188555050505b505050505050565b600073ffffffffffffffffffffffffffffffffffffffff82169050919050565b600061053a8261050f565b9050919050565b61054a8161052f565b82525050565b60006020820190506105656000830184610541565b92915050565b612f1f8061057a6000396000f3fe608060405234801561001057600080fd5b50600436106101585760003560e01c806375794a3c116100c3578063c87b56dd1161007c578063c87b56dd146103ec578063c8e492d71461041c578063c9cf2adc1461043a578063e985e9c51461046a578063f1dbaccb1461049a578063f2fde38b146104ca57610158565b806375794a3c1461032a578063775cb510146103485780638da5cb5b1461037857806395d89b4114610396578063a22cb465146103b4578063b88d4fde146103d057610158565b806342842e0e1161011557806342842e0e14610243578063538455091461025f5780636352211e1461028f5780636813b53b146102bf57806370a08231146102f0578063715018a61461032057610158565b806301ffc9a71461015d57806306fdde031461018d578063081812fc146101ab578063095ea7b3146101db57806323b872dd146101f75780633937d59714610213575b600080fd5b610177600480360381019061017291906120ac565b6104e6565b60405161018491906120f4565b60405180910390f35b6101956105c8565b6040516101a2919061219f565b60405180910390f35b6101c560048036038101906101c091906121f7565b61065a565b6040516101d29190612265565b60405180910390f35b6101f560048036038101906101f091906122ac565b610676565b005b610211600480360381019061020c91906122ec565b61068c565b005b61022d600480360381019061022891906121f7565b61078e565b60405161023a91906120f4565b60405180910390f35b61025d600480360381019061025891906122ec565b6107cf565b005b610279600480360381019061027491906121f7565b6107ef565b604051610286919061219f565b60405180910390f35b6102a960048036038101906102a491906121f7565b61088f565b6040516102b69190612265565b60405180910390f35b6102d960048036038101906102d491906121f7565b6108a1565b6040516102e792919061233f565b60405180910390f35b61030a6004803603810190610305919061236f565b6109cc565b60405161031791906123ab565b60405180910390f35b610328610a86565b005b610332610a9a565b60405161033f91906123ab565b60405180910390f35b610362600480360381019061035d91906124fb565b610aa0565b60405161036f91906123ab565b60405180910390f35b610380610bc1565b60405161038d9190612265565b60405180910390f35b61039e610beb565b6040516103ab919061219f565b60405180910390f35b6103ce60048036038101906103c99190612583565b610c7d565b005b6103ea60048036038101906103e59190612664565b610c93565b005b610406600480360381019061040191906121f7565b610cb8565b604051610413919061219f565b60405180910390f35b610424610d21565b60405161043191906127a5565b60405180910390f35b610454600480360381019061044f91906127c7565b610e67565b6040516104619190612265565b60405180910390f35b610484600480360381019061047f9190612807565b610eb5565b60405161049191906120f4565b60405180910390f35b6104b460048036038101906104af91906121f7565b610f49565b6040516104c19190612905565b60405180910390f35b6104e460048036038101906104df919061236f565b611061565b005b60007f80ac58cd000000000000000000000000000000000000000000000000000000007bffffffffffffffffffffffffffffffffffffffffffffffffffffffff1916827bffffffffffffffffffffffffffffffffffffffffffffffffffffffff191614806105b157507f5b5e139f000000000000000000000000000000000000000000000000000000007bffffffffffffffffffffffffffffffffffffffffffffffffffffffff1916827bffffffffffffffffffffffffffffffffffffffffffffffffffffffff1916145b806105c157506105c0826110e7565b5b9050919050565b6060600080546105d790612956565b80601f016020809104026020016040519081016040528092919081815260200182805461060390612956565b80156106505780601f1061062557610100808354040283529160200191610650565b820191906000526020600020905b81548152906001019060200180831161063357829003601f168201915b5050505050905090565b600061066582611151565b5061066f826111d9565b9050919050565b6106888282610683611216565b61121e565b5050565b600073ffffffffffffffffffffffffffffffffffffffff168273ffffffffffffffffffffffffffffffffffffffff16036106fe5760006040517f64a0ae920000000000000000000000000000000000000000000000000000000081526004016106f59190612265565b60405180910390fd5b6000610712838361070d611216565b611230565b90508373ffffffffffffffffffffffffffffffffffffffff168173ffffffffffffffffffffffffffffffffffffffff1614610788578382826040517f64283d7b00000000000000000000000000000000000000000000000000000000815260040161077f93929190612987565b60405180910390fd5b50505050565b60008073ffffffffffffffffffffffffffffffffffffffff166107b0836112bf565b73ffffffffffffffffffffffffffffffffffffffff1614159050919050565b6107ea83838360405180602001604052806000815250610c93565b505050565b6008602052806000526040600020600091509050805461080e90612956565b80601f016020809104026020016040519081016040528092919081815260200182805461083a90612956565b80156108875780601f1061085c57610100808354040283529160200191610887565b820191906000526020600020905b81548152906001019060200180831161086a57829003601f168201915b505050505081565b600061089a82611151565b9050919050565b606060008073ffffffffffffffffffffffffffffffffffffffff166108c5846112bf565b73ffffffffffffffffffffffffffffffffffffffff160361091b576040517f08c379a000000000000000000000000000000000000000000000000000000000815260040161091290612a0a565b60405180910390fd5b600860008481526020019081526020016000206109378461088f565b81805461094390612956565b80601f016020809104026020016040519081016040528092919081815260200182805461096f90612956565b80156109bc5780601f10610991576101008083540402835291602001916109bc565b820191906000526020600020905b81548152906001019060200180831161099f57829003601f168201915b5050505050915091509150915091565b60008073ffffffffffffffffffffffffffffffffffffffff168273ffffffffffffffffffffffffffffffffffffffff1603610a3f5760006040517f89c62b64000000000000000000000000000000000000000000000000000000008152600401610a369190612265565b60405180910390fd5b600360008373ffffffffffffffffffffffffffffffffffffffff1673ffffffffffffffffffffffffffffffffffffffff168152602001908152602001600020549050919050565b610a8e6112fc565b610a986000611383565b565b60075481565b6000610aaa6112fc565b60006007549050610abb8482611449565b82600860008381526020019081526020016000209081610adb9190612bd6565b5060096000828152602001908152602001600020849080600181540180825580915050600190039060005260206000200160009091909190916101000a81548173ffffffffffffffffffffffffffffffffffffffff021916908373ffffffffffffffffffffffffffffffffffffffff1602179055508373ffffffffffffffffffffffffffffffffffffffff16817fa77532f709cda752aef1f34d0041c486e2760e3798d55aaafc4f559ef32af54685604051610b97919061219f565b60405180910390a360076000815480929190610bb290612cd7565b91905055508091505092915050565b6000600660009054906101000a900473ffffffffffffffffffffffffffffffffffffffff16905090565b606060018054610bfa90612956565b80601f0160208091040260200160405190810160405280929190818152602001828054610c2690612956565b8015610c735780601f10610c4857610100808354040283529160200191610c73565b820191906000526020600020905b815481529060010190602001808311610c5657829003601f168201915b5050505050905090565b610c8f610c88611216565b8383611467565b5050565b610c9e84848461068c565b610cb2610ca9611216565b858585856115d6565b50505050565b6060610cc382611151565b506000610cce611787565b90506000815111610cee5760405180602001604052806000815250610d19565b80610cf88461179e565b604051602001610d09929190612d5b565b6040516020818303038152906040525b915050919050565b60606000805b600754811015610d8957600073ffffffffffffffffffffffffffffffffffffffff16610d52826112bf565b73ffffffffffffffffffffffffffffffffffffffff1614610d7c578180610d7890612cd7565b9250505b8080600101915050610d27565b5060008167ffffffffffffffff811115610da657610da56123d0565b5b604051908082528060200260200182016040528015610dd45781602001602082028036833780820191505090505b5090506000805b600754811015610e5d57600073ffffffffffffffffffffffffffffffffffffffff16610e06826112bf565b73ffffffffffffffffffffffffffffffffffffffff1614610e505780838381518110610e3557610e34612d7f565b5b6020026020010181815250508180610e4c90612cd7565b9250505b8080600101915050610ddb565b5081935050505090565b60096020528160005260406000208181548110610e8357600080fd5b906000526020600020016000915091509054906101000a900473ffffffffffffffffffffffffffffffffffffffff1681565b6000600560008473ffffffffffffffffffffffffffffffffffffffff1673ffffffffffffffffffffffffffffffffffffffff16815260200190815260200160002060008373ffffffffffffffffffffffffffffffffffffffff1673ffffffffffffffffffffffffffffffffffffffff16815260200190815260200160002060009054906101000a900460ff16905092915050565b6060600073ffffffffffffffffffffffffffffffffffffffff16610f6c836112bf565b73ffffffffffffffffffffffffffffffffffffffff1603610fc2576040517f08c379a0000000000000000000000000000000000000000000000000000000008152600401610fb990612a0a565b60405180910390fd5b6009600083815260200190815260200160002080548060200260200160405190810160405280929190818152602001828054801561105557602002820191906000526020600020905b8160009054906101000a900473ffffffffffffffffffffffffffffffffffffffff1673ffffffffffffffffffffffffffffffffffffffff168152602001906001019080831161100b575b50505050509050919050565b6110696112fc565b600073ffffffffffffffffffffffffffffffffffffffff168173ffffffffffffffffffffffffffffffffffffffff16036110db5760006040517f1e4fbdf70000000000000000000000000000000000000000000000000000000081526004016110d29190612265565b60405180910390fd5b6110e481611383565b50565b60007f01ffc9a7000000000000000000000000000000000000000000000000000000007bffffffffffffffffffffffffffffffffffffffffffffffffffffffff1916827bffffffffffffffffffffffffffffffffffffffffffffffffffffffff1916149050919050565b60008061115d836112bf565b9050600073ffffffffffffffffffffffffffffffffffffffff168173ffffffffffffffffffffffffffffffffffffffff16036111d057826040517f7e2732890000000000000000000000000000000000000000000000000000000081526004016111c791906123ab565b60405180910390fd5b80915050919050565b60006004600083815260200190815260200160002060009054906101000a900473ffffffffffffffffffffffffffffffffffffffff169050919050565b600033905090565b61122b838383600161186c565b505050565b60008061123e858585611a31565b905060096000858152602001908152602001600020859080600181540180825580915050600190039060005260206000200160009091909190916101000a81548173ffffffffffffffffffffffffffffffffffffffff021916908373ffffffffffffffffffffffffffffffffffffffff160217905550809150509392505050565b60006002600083815260200190815260200160002060009054906101000a900473ffffffffffffffffffffffffffffffffffffffff169050919050565b611304611216565b73ffffffffffffffffffffffffffffffffffffffff16611322610bc1565b73ffffffffffffffffffffffffffffffffffffffff161461138157611345611216565b6040517f118cdaa70000000000000000000000000000000000000000000000000000000081526004016113789190612265565b60405180910390fd5b565b6000600660009054906101000a900473ffffffffffffffffffffffffffffffffffffffff16905081600660006101000a81548173ffffffffffffffffffffffffffffffffffffffff021916908373ffffffffffffffffffffffffffffffffffffffff1602179055508173ffffffffffffffffffffffffffffffffffffffff168173ffffffffffffffffffffffffffffffffffffffff167f8be0079c531659141344cd1fd0a4f28419497f9722a3daafe3b4186f6b6457e060405160405180910390a35050565b611463828260405180602001604052806000815250611c4b565b5050565b600073ffffffffffffffffffffffffffffffffffffffff168273ffffffffffffffffffffffffffffffffffffffff16036114d857816040517f5b08ba180000000000000000000000000000000000000000000000000000000081526004016114cf9190612265565b60405180910390fd5b80600560008573ffffffffffffffffffffffffffffffffffffffff1673ffffffffffffffffffffffffffffffffffffffff16815260200190815260200160002060008473ffffffffffffffffffffffffffffffffffffffff1673ffffffffffffffffffffffffffffffffffffffff16815260200190815260200160002060006101000a81548160ff0219169083151502179055508173ffffffffffffffffffffffffffffffffffffffff168373ffffffffffffffffffffffffffffffffffffffff167f17307eab39ab6107e8899845ad3d59bd9653f200f220920489ca2b5937696c31836040516115c991906120f4565b60405180910390a3505050565b60008373ffffffffffffffffffffffffffffffffffffffff163b1115611780578273ffffffffffffffffffffffffffffffffffffffff1663150b7a02868685856040518563ffffffff1660e01b81526004016116359493929190612e03565b6020604051808303816000875af192505050801561167157506040513d601f19601f8201168201806040525081019061166e9190612e64565b60015b6116f5573d80600081146116a1576040519150601f19603f3d011682016040523d82523d6000602084013e6116a6565b606091505b5060008151036116ed57836040517f64a0ae920000000000000000000000000000000000000000000000000000000081526004016116e49190612265565b60405180910390fd5b805181602001fd5b63150b7a0260e01b7bffffffffffffffffffffffffffffffffffffffffffffffffffffffff1916817bffffffffffffffffffffffffffffffffffffffffffffffffffffffff19161461177e57836040517f64a0ae920000000000000000000000000000000000000000000000000000000081526004016117759190612265565b60405180910390fd5b505b5050505050565b606060405180602001604052806000815250905090565b6060600060016117ad84611c6f565b01905060008167ffffffffffffffff8111156117cc576117cb6123d0565b5b6040519080825280601f01601f1916602001820160405280156117fe5781602001600182028036833780820191505090505b509050600082602001820190505b600115611861578080600190039150507f3031323334353637383961626364656600000000000000000000000000000000600a86061a8153600a858161185557611854612e91565b5b0494506000850361180c575b819350505050919050565b80806118a55750600073ffffffffffffffffffffffffffffffffffffffff168273ffffffffffffffffffffffffffffffffffffffff1614155b156119d95760006118b584611151565b9050600073ffffffffffffffffffffffffffffffffffffffff168373ffffffffffffffffffffffffffffffffffffffff161415801561192057508273ffffffffffffffffffffffffffffffffffffffff168173ffffffffffffffffffffffffffffffffffffffff1614155b801561193357506119318184610eb5565b155b1561197557826040517fa9fbf51f00000000000000000000000000000000000000000000000000000000815260040161196c9190612265565b60405180910390fd5b81156119d757838573ffffffffffffffffffffffffffffffffffffffff168273ffffffffffffffffffffffffffffffffffffffff167f8c5be1e5ebec7d5bd14f71427d1e84f3dd0314c0f7b2291e5b200ac8c7c3b92560405160405180910390a45b505b836004600085815260200190815260200160002060006101000a81548173ffffffffffffffffffffffffffffffffffffffff021916908373ffffffffffffffffffffffffffffffffffffffff16021790555050505050565b600080611a3d846112bf565b9050600073ffffffffffffffffffffffffffffffffffffffff168373ffffffffffffffffffffffffffffffffffffffff1614611a7f57611a7e818486611dc2565b5b600073ffffffffffffffffffffffffffffffffffffffff168173ffffffffffffffffffffffffffffffffffffffff1614611b1057611ac160008560008061186c565b6001600360008373ffffffffffffffffffffffffffffffffffffffff1673ffffffffffffffffffffffffffffffffffffffff168152602001908152602001600020600082825403925050819055505b600073ffffffffffffffffffffffffffffffffffffffff168573ffffffffffffffffffffffffffffffffffffffff1614611b93576001600360008773ffffffffffffffffffffffffffffffffffffffff1673ffffffffffffffffffffffffffffffffffffffff168152602001908152602001600020600082825401925050819055505b846002600086815260200190815260200160002060006101000a81548173ffffffffffffffffffffffffffffffffffffffff021916908373ffffffffffffffffffffffffffffffffffffffff160217905550838573ffffffffffffffffffffffffffffffffffffffff168273ffffffffffffffffffffffffffffffffffffffff167fddf252ad1be2c89b69c2b068fc378daa952ba7f163c4a11628f55a4df523b3ef60405160405180910390a4809150509392505050565b611c558383611e86565b611c6a611c60611216565b60008585856115d6565b505050565b600080600090507a184f03e93ff9f4daa797ed6e38ed64bf6a1f0100000000000000008310611ccd577a184f03e93ff9f4daa797ed6e38ed64bf6a1f0100000000000000008381611cc357611cc2612e91565b5b0492506040810190505b6d04ee2d6d415b85acef81000000008310611d0a576d04ee2d6d415b85acef81000000008381611d0057611cff612e91565b5b0492506020810190505b662386f26fc100008310611d3957662386f26fc100008381611d2f57611d2e612e91565b5b0492506010810190505b6305f5e1008310611d62576305f5e1008381611d5857611d57612e91565b5b0492506008810190505b6127108310611d87576127108381611d7d57611d7c612e91565b5b0492506004810190505b60648310611daa5760648381611da057611d9f612e91565b5b0492506002810190505b600a8310611db9576001810190505b80915050919050565b611dcd838383611f7f565b611e8157600073ffffffffffffffffffffffffffffffffffffffff168373ffffffffffffffffffffffffffffffffffffffff1603611e4257806040517f7e273289000000000000000000000000000000000000000000000000000000008152600401611e3991906123ab565b60405180910390fd5b81816040517f177e802f000000000000000000000000000000000000000000000000000000008152600401611e78929190612ec0565b60405180910390fd5b505050565b600073ffffffffffffffffffffffffffffffffffffffff168273ffffffffffffffffffffffffffffffffffffffff1603611ef85760006040517f64a0ae92000000000000000000000000000000000000000000000000000000008152600401611eef9190612265565b60405180910390fd5b6000611f0683836000611230565b9050600073ffffffffffffffffffffffffffffffffffffffff168173ffffffffffffffffffffffffffffffffffffffff1614611f7a5760006040517f73c6ac6e000000000000000000000000000000000000000000000000000000008152600401611f719190612265565b60405180910390fd5b505050565b60008073ffffffffffffffffffffffffffffffffffffffff168373ffffffffffffffffffffffffffffffffffffffff161415801561203757508273ffffffffffffffffffffffffffffffffffffffff168473ffffffffffffffffffffffffffffffffffffffff161480611ff85750611ff78484610eb5565b5b8061203657508273ffffffffffffffffffffffffffffffffffffffff1661201e836111d9565b73ffffffffffffffffffffffffffffffffffffffff16145b5b90509392505050565b6000604051905090565b600080fd5b600080fd5b60007fffffffff0000000000000000000000000000000000000000000000000000000082169050919050565b61208981612054565b811461209457600080fd5b50565b6000813590506120a681612080565b92915050565b6000602082840312156120c2576120c161204a565b5b60006120d084828501612097565b91505092915050565b60008115159050919050565b6120ee816120d9565b82525050565b600060208201905061210960008301846120e5565b92915050565b600081519050919050565b600082825260208201905092915050565b60005b8381101561214957808201518184015260208101905061212e565b60008484015250505050565b6000601f19601f8301169050919050565b60006121718261210f565b61217b818561211a565b935061218b81856020860161212b565b61219481612155565b840191505092915050565b600060208201905081810360008301526121b98184612166565b905092915050565b6000819050919050565b6121d4816121c1565b81146121df57600080fd5b50565b6000813590506121f1816121cb565b92915050565b60006020828403121561220d5761220c61204a565b5b600061221b848285016121e2565b91505092915050565b600073ffffffffffffffffffffffffffffffffffffffff82169050919050565b600061224f82612224565b9050919050565b61225f81612244565b82525050565b600060208201905061227a6000830184612256565b92915050565b61228981612244565b811461229457600080fd5b50565b6000813590506122a681612280565b92915050565b600080604083850312156122c3576122c261204a565b5b60006122d185828601612297565b92505060206122e2858286016121e2565b9150509250929050565b6000806000606084860312156123055761230461204a565b5b600061231386828701612297565b935050602061232486828701612297565b9250506040612335868287016121e2565b9150509250925092565b600060408201905081810360008301526123598185612166565b90506123686020830184612256565b9392505050565b6000602082840312156123855761238461204a565b5b600061239384828501612297565b91505092915050565b6123a5816121c1565b82525050565b60006020820190506123c0600083018461239c565b92915050565b600080fd5b600080fd5b7f4e487b7100000000000000000000000000000000000000000000000000000000600052604160045260246000fd5b61240882612155565b810181811067ffffffffffffffff82111715612427576124266123d0565b5b80604052505050565b600061243a612040565b905061244682826123ff565b919050565b600067ffffffffffffffff821115612466576124656123d0565b5b61246f82612155565b9050602081019050919050565b82818337600083830152505050565b600061249e6124998461244b565b612430565b9050828152602081018484840111156124ba576124b96123cb565b5b6124c584828561247c565b509392505050565b600082601f8301126124e2576124e16123c6565b5b81356124f284826020860161248b565b91505092915050565b600080604083850312156125125761251161204a565b5b600061252085828601612297565b925050602083013567ffffffffffffffff8111156125415761254061204f565b5b61254d858286016124cd565b9150509250929050565b612560816120d9565b811461256b57600080fd5b50565b60008135905061257d81612557565b92915050565b6000806040838503121561259a5761259961204a565b5b60006125a885828601612297565b92505060206125b98582860161256e565b9150509250929050565b600067ffffffffffffffff8211156125de576125dd6123d0565b5b6125e782612155565b9050602081019050919050565b6000612607612602846125c3565b612430565b905082815260208101848484011115612623576126226123cb565b5b61262e84828561247c565b509392505050565b600082601f83011261264b5761264a6123c6565b5b813561265b8482602086016125f4565b91505092915050565b6000806000806080858703121561267e5761267d61204a565b5b600061268c87828801612297565b945050602061269d87828801612297565b93505060406126ae878288016121e2565b925050606085013567ffffffffffffffff8111156126cf576126ce61204f565b5b6126db87828801612636565b91505092959194509250565b600081519050919050565b600082825260208201905092915050565b6000819050602082019050919050565b61271c816121c1565b82525050565b600061272e8383612713565b60208301905092915050565b6000602082019050919050565b6000612752826126e7565b61275c81856126f2565b935061276783612703565b8060005b8381101561279857815161277f8882612722565b975061278a8361273a565b92505060018101905061276b565b5085935050505092915050565b600060208201905081810360008301526127bf8184612747565b905092915050565b600080604083850312156127de576127dd61204a565b5b60006127ec858286016121e2565b92505060206127fd858286016121e2565b9150509250929050565b6000806040838503121561281e5761281d61204a565b5b600061282c85828601612297565b925050602061283d85828601612297565b9150509250929050565b600081519050919050565b600082825260208201905092915050565b6000819050602082019050919050565b61287c81612244565b82525050565b600061288e8383612873565b60208301905092915050565b6000602082019050919050565b60006128b282612847565b6128bc8185612852565b93506128c783612863565b8060005b838110156128f85781516128df8882612882565b97506128ea8361289a565b9250506001810190506128cb565b5085935050505092915050565b6000602082019050818103600083015261291f81846128a7565b905092915050565b7f4e487b7100000000000000000000000000000000000000000000000000000000600052602260045260246000fd5b6000600282049050600182168061296e57607f821691505b60208210810361298157612980612927565b5b50919050565b600060608201905061299c6000830186612256565b6129a9602083018561239c565b6129b66040830184612256565b949350505050565b7f546f6b656e20646f6573206e6f74206578697374000000000000000000000000600082015250565b60006129f460148361211a565b91506129ff826129be565b602082019050919050565b60006020820190508181036000830152612a23816129e7565b9050919050565b60008190508160005260206000209050919050565b60006020601f8301049050919050565b600082821b905092915050565b600060088302612a8c7fffffffffffffffffffffffffffffffffffffffffffffffffffffffffffffffff82612a4f565b612a968683612a4f565b95508019841693508086168417925050509392505050565b6000819050919050565b6000612ad3612ace612ac9846121c1565b612aae565b6121c1565b9050919050565b6000819050919050565b612aed83612ab8565b612b01612af982612ada565b848454612a5c565b825550505050565b600090565b612b16612b09565b612b21818484612ae4565b505050565b5b81811015612b4557612b3a600082612b0e565b600181019050612b27565b5050565b601f821115612b8a57612b5b81612a2a565b612b6484612a3f565b81016020851015612b73578190505b612b87612b7f85612a3f565b830182612b26565b50505b505050565b600082821c905092915050565b6000612bad60001984600802612b8f565b1980831691505092915050565b6000612bc68383612b9c565b9150826002028217905092915050565b612bdf8261210f565b67ffffffffffffffff811115612bf857612bf76123d0565b5b612c028254612956565b612c0d828285612b49565b600060209050601f831160018114612c405760008415612c2e578287015190505b612c388582612bba565b865550612ca0565b601f198416612c4e86612a2a565b60005b82811015612c7657848901518255600182019150602085019450602081019050612c51565b86831015612c935784890151612c8f601f891682612b9c565b8355505b6001600288020188555050505b505050505050565b7f4e487b7100000000000000000000000000000000000000000000000000000000600052601160045260246000fd5b6000612ce2826121c1565b91507fffffffffffffffffffffffffffffffffffffffffffffffffffffffffffffffff8203612d1457612d13612ca8565b5b600182019050919050565b600081905092915050565b6000612d358261210f565b612d3f8185612d1f565b9350612d4f81856020860161212b565b80840191505092915050565b6000612d678285612d2a565b9150612d738284612d2a565b91508190509392505050565b7f4e487b7100000000000000000000000000000000000000000000000000000000600052603260045260246000fd5b600081519050919050565b600082825260208201905092915050565b6000612dd582612dae565b612ddf8185612db9565b9350612def81856020860161212b565b612df881612155565b840191505092915050565b6000608082019050612e186000830187612256565b612e256020830186612256565b612e32604083018561239c565b8181036060830152612e448184612dca565b905095945050505050565b600081519050612e5e81612080565b92915050565b600060208284031215612e7a57612e7961204a565b5b6000612e8884828501612e4f565b91505092915050565b7f4e487b7100000000000000000000000000000000000000000000000000000000600052601260045260246000fd5b6000604082019050612ed56000830185612256565b612ee2602083018461239c565b939250505056fea2646970667358221220af5f97b3003122ffd15106844f9b72d930f65c85a9ac51bb56e4f02cf27ffb4364736f6c634300081c0033",
  "linkReferences": {},
  "deployedLinkReferences": {}
}