{
  "_format": "hh-sol-artifact-1",
  "contractName": "SupplyChainVerification",
  "sourceName": "contracts/SupplyChainVerification.sol",
  "abi": [
    {
      "anonymous": false,
      "inputs": [
        {
          "indexed": false,
          "internalType": "uint256",
          "name": "productId",
          "type": "uint256"
        },
        {
          "indexed": true,
          "internalType": "address",
          "name": "from",
          "type": "address"
        },
        {
          "indexed": true,
          "internalType": "address",
          "name": "to",
          "type": "address"
        },
        {
          "indexed": false,
          "internalType": "uint256",
          "name": "timestamp",
          "type": "uint256"
        }
      ],
      "name": "ProductMoved",
      "type": "event"
    },
    {
      "inputs": [
        {
          "internalType": "address",
          "name": "_stakeholder",
          "type": "address"
        },
        {
          "internalType": "string",
          "name": "_role",
          "type": "string"
        }
      ],
      "name": "addStakeholder",
      "outputs": [],
      "stateMutability": "nonpayable",
      "type": "function"
    },
    {
      "inputs": [
        {
          "internalType": "uint256",
          "name": "productId",
          "type": "uint256"
        }
      ],
      "name": "getProductHistory",
      "outputs": [
        {
          "components": [
            {
              "internalType": "address",
              "name": "from",
              "type": "address"
            },
            {
              "internalType": "address",
              "name": "to",
              "type": "address"
            },
            {
              "internalType": "uint256",
              "name": "timestamp",
              "type": "uint256"
            }
          ],
          "internalType": "struct SupplyChainVerification.Movement[]",
          "name": "",
          "type": "tuple[]"
        }
      ],
      "stateMutability": "view",
      "type": "function"
    },
    {
      "inputs": [
        {
          "internalType": "uint256",
          "name": "",
          "type": "uint256"
        },
        {
          "internalType": "uint256",
          "name": "",
          "type": "uint256"
        }
      ],
      "name": "productHistory",
      "outputs": [
        {
          "internalType": "address",
          "name": "from",
          "type": "address"
        },
        {
          "internalType": "address",
          "name": "to",
          "type": "address"
        },
        {
          "internalType": "uint256",
          "name": "timestamp",
          "type": "uint256"
        }
      ],
      "stateMutability": "view",
      "type": "function"
    },
    {
      "inputs": [
        {
          "internalType": "uint256",
          "name": "productId",
          "type": "uint256"
        },
        {
          "internalType": "address",
          "name": "from",
          "type": "address"
        },
        {
          "internalType": "address",
          "name": "to",
          "type": "address"
        }
      ],
      "name": "recordMovement",
      "outputs": [],
      "stateMutability": "nonpayable",
      "type": "function"
    },
    {
      "inputs": [
        {
          "internalType": "address",
          "name": "",
          "type": "address"
        }
      ],
      "name": "stakeholders",
      "outputs": [
        {
          "internalType": "string",
          "name": "",
          "type": "string"
        }
      ],
      "stateMutability": "view",
      "type": "function"
    }
  ],
  "bytecode": "0x6080604052348015600f57600080fd5b50610de88061001f6000396000f3fe608060405234801561001057600080fd5b50600436106100575760003560e01c806338ce03da1461005c5780633a7d23761461007857806357a096a1146100aa57806378cd4d93146100da578063c07cfca9146100f6575b600080fd5b610076600480360381019061007191906105f5565b610126565b005b610092600480360381019061008d9190610648565b6102ae565b6040516100a1939291906106a6565b60405180910390f35b6100c460048036038101906100bf91906106dd565b610335565b6040516100d19190610819565b60405180910390f35b6100f460048036038101906100ef9190610981565b61045c565b005b610110600480360381019061010b91906109dd565b6104ad565b60405161011d9190610a89565b60405180910390f35b60008084815260200190815260200160002060405180606001604052808473ffffffffffffffffffffffffffffffffffffffff1681526020018373ffffffffffffffffffffffffffffffffffffffff16815260200142815250908060018154018082558091505060019003906000526020600020906003020160009091909190915060008201518160000160006101000a81548173ffffffffffffffffffffffffffffffffffffffff021916908373ffffffffffffffffffffffffffffffffffffffff16021790555060208201518160010160006101000a81548173ffffffffffffffffffffffffffffffffffffffff021916908373ffffffffffffffffffffffffffffffffffffffff1602179055506040820151816002015550508073ffffffffffffffffffffffffffffffffffffffff168273ffffffffffffffffffffffffffffffffffffffff167fd665376818418c97fe8391a859297d7561a92cc9ba901d788b1d1b9f4cbb7a9885426040516102a1929190610aab565b60405180910390a3505050565b600060205281600052604060002081815481106102ca57600080fd5b9060005260206000209060030201600091509150508060000160009054906101000a900473ffffffffffffffffffffffffffffffffffffffff16908060010160009054906101000a900473ffffffffffffffffffffffffffffffffffffffff16908060020154905083565b6060600080838152602001908152602001600020805480602002602001604051908101604052809291908181526020016000905b8282101561045157838290600052602060002090600302016040518060600160405290816000820160009054906101000a900473ffffffffffffffffffffffffffffffffffffffff1673ffffffffffffffffffffffffffffffffffffffff1673ffffffffffffffffffffffffffffffffffffffff1681526020016001820160009054906101000a900473ffffffffffffffffffffffffffffffffffffffff1673ffffffffffffffffffffffffffffffffffffffff1673ffffffffffffffffffffffffffffffffffffffff16815260200160028201548152505081526020019060010190610369565b505050509050919050565b80600160008473ffffffffffffffffffffffffffffffffffffffff1673ffffffffffffffffffffffffffffffffffffffff16815260200190815260200160002090816104a89190610ce0565b505050565b600160205280600052604060002060009150905080546104cc90610b03565b80601f01602080910402602001604051908101604052809291908181526020018280546104f890610b03565b80156105455780601f1061051a57610100808354040283529160200191610545565b820191906000526020600020905b81548152906001019060200180831161052857829003601f168201915b505050505081565b6000604051905090565b600080fd5b600080fd5b6000819050919050565b61057481610561565b811461057f57600080fd5b50565b6000813590506105918161056b565b92915050565b600073ffffffffffffffffffffffffffffffffffffffff82169050919050565b60006105c282610597565b9050919050565b6105d2816105b7565b81146105dd57600080fd5b50565b6000813590506105ef816105c9565b92915050565b60008060006060848603121561060e5761060d610557565b5b600061061c86828701610582565b935050602061062d868287016105e0565b925050604061063e868287016105e0565b9150509250925092565b6000806040838503121561065f5761065e610557565b5b600061066d85828601610582565b925050602061067e85828601610582565b9150509250929050565b610691816105b7565b82525050565b6106a081610561565b82525050565b60006060820190506106bb6000830186610688565b6106c86020830185610688565b6106d56040830184610697565b949350505050565b6000602082840312156106f3576106f2610557565b5b600061070184828501610582565b91505092915050565b600081519050919050565b600082825260208201905092915050565b6000819050602082019050919050565b61073f816105b7565b82525050565b61074e81610561565b82525050565b60608201600082015161076a6000850182610736565b50602082015161077d6020850182610736565b5060408201516107906040850182610745565b50505050565b60006107a28383610754565b60608301905092915050565b6000602082019050919050565b60006107c68261070a565b6107d08185610715565b93506107db83610726565b8060005b8381101561080c5781516107f38882610796565b97506107fe836107ae565b9250506001810190506107df565b5085935050505092915050565b6000602082019050818103600083015261083381846107bb565b905092915050565b600080fd5b600080fd5b6000601f19601f8301169050919050565b7f4e487b7100000000000000000000000000000000000000000000000000000000600052604160045260246000fd5b61088e82610845565b810181811067ffffffffffffffff821117156108ad576108ac610856565b5b80604052505050565b60006108c061054d565b90506108cc8282610885565b919050565b600067ffffffffffffffff8211156108ec576108eb610856565b5b6108f582610845565b9050602081019050919050565b82818337600083830152505050565b600061092461091f846108d1565b6108b6565b9050828152602081018484840111156109405761093f610840565b5b61094b848285610902565b509392505050565b600082601f8301126109685761096761083b565b5b8135610978848260208601610911565b91505092915050565b6000806040838503121561099857610997610557565b5b60006109a6858286016105e0565b925050602083013567ffffffffffffffff8111156109c7576109c661055c565b5b6109d385828601610953565b9150509250929050565b6000602082840312156109f3576109f2610557565b5b6000610a01848285016105e0565b91505092915050565b600081519050919050565b600082825260208201905092915050565b60005b83811015610a44578082015181840152602081019050610a29565b60008484015250505050565b6000610a5b82610a0a565b610a658185610a15565b9350610a75818560208601610a26565b610a7e81610845565b840191505092915050565b60006020820190508181036000830152610aa38184610a50565b905092915050565b6000604082019050610ac06000830185610697565b610acd6020830184610697565b9392505050565b7f4e487b7100000000000000000000000000000000000000000000000000000000600052602260045260246000fd5b60006002820490506001821680610b1b57607f821691505b602082108103610b2e57610b2d610ad4565b5b50919050565b60008190508160005260206000209050919050565b60006020601f8301049050919050565b600082821b905092915050565b600060088302610b967fffffffffffffffffffffffffffffffffffffffffffffffffffffffffffffffff82610b59565b610ba08683610b59565b95508019841693508086168417925050509392505050565b6000819050919050565b6000610bdd610bd8610bd384610561565b610bb8565b610561565b9050919050565b6000819050919050565b610bf783610bc2565b610c0b610c0382610be4565b848454610b66565b825550505050565b600090565b610c20610c13565b610c2b818484610bee565b505050565b5b81811015610c4f57610c44600082610c18565b600181019050610c31565b5050565b601f821115610c9457610c6581610b34565b610c6e84610b49565b81016020851015610c7d578190505b610c91610c8985610b49565b830182610c30565b50505b505050565b600082821c905092915050565b6000610cb760001984600802610c99565b1980831691505092915050565b6000610cd08383610ca6565b9150826002028217905092915050565b610ce982610a0a565b67ffffffffffffffff811115610d0257610d01610856565b5b610d0c8254610b03565b610d17828285610c53565b600060209050601f831160018114610d4a5760008415610d38578287015190505b610d428582610cc4565b865550610daa565b601f198416610d5886610b34565b60005b82811015610d8057848901518255600182019150602085019450602081019050610d5b565b86831015610d9d5784890151610d99601f891682610ca6565b8355505b6001600288020188555050505b50505050505056fea26469706673582212201e97a760810e3b086b3752f576d774aab12cc7ffafbc8f97fb8c7cb6caca428464736f6c634300081c0033",
  "linkReferences": {},
  "deployedLinkReferences": {}
}