{
  "_format": "hh-sol-artifact-1",
  "contractName": "PaymentEscrow",
  "sourceName": "contracts/PaymentEscrow.sol",
  "abi": [
    {
      "anonymous": false,
      "inputs": [
        {
          "indexed": false,
          "internalType": "uint256",
          "name": "productId",
          "type": "uint256"
        },
        {
          "indexed": true,
          "internalType": "address",
          "name": "buyer",
          "type": "address"
        },
        {
          "indexed": true,
          "internalType": "address",
          "name": "seller",
          "type": "address"
        },
        {
          "indexed": false,
          "internalType": "uint256",
          "name": "amount",
          "type": "uint256"
        }
      ],
      "name": "PaymentInitiated",
      "type": "event"
    },
    {
      "anonymous": false,
      "inputs": [
        {
          "indexed": false,
          "internalType": "uint256",
          "name": "productId",
          "type": "uint256"
        },
        {
          "indexed": true,
          "internalType": "address",
          "name": "buyer",
          "type": "address"
        }
      ],
      "name": "PaymentRefunded",
      "type": "event"
    },
    {
      "anonymous": false,
      "inputs": [
        {
          "indexed": false,
          "internalType": "uint256",
          "name": "productId",
          "type": "uint256"
        },
        {
          "indexed": true,
          "internalType": "address",
          "name": "seller",
          "type": "address"
        }
      ],
      "name": "PaymentReleased",
      "type": "event"
    },
    {
      "inputs": [
        {
          "internalType": "uint256",
          "name": "productId",
          "type": "uint256"
        }
      ],
      "name": "confirmDelivery",
      "outputs": [],
      "stateMutability": "nonpayable",
      "type": "function"
    },
    {
      "inputs": [
        {
          "internalType": "uint256",
          "name": "productId",
          "type": "uint256"
        },
        {
          "internalType": "address",
          "name": "seller",
          "type": "address"
        }
      ],
      "name": "initiatePayment",
      "outputs": [],
      "stateMutability": "payable",
      "type": "function"
    },
    {
      "inputs": [
        {
          "internalType": "uint256",
          "name": "",
          "type": "uint256"
        }
      ],
      "name": "payments",
      "outputs": [
        {
          "internalType": "address",
          "name": "buyer",
          "type": "address"
        },
        {
          "internalType": "address",
          "name": "seller",
          "type": "address"
        },
        {
          "internalType": "uint256",
          "name": "amount",
          "type": "uint256"
        },
        {
          "internalType": "bool",
          "name": "isPaid",
          "type": "bool"
        }
      ],
      "stateMutability": "view",
      "type": "function"
    },
    {
      "inputs": [
        {
          "internalType": "uint256",
          "name": "productId",
          "type": "uint256"
        }
      ],
      "name": "refundBuyer",
      "outputs": [],
      "stateMutability": "nonpayable",
      "type": "function"
    }
  ],
  "bytecode": "0x6080604052348015600f57600080fd5b50610c178061001f6000396000f3fe60806040526004361061003f5760003560e01c8063392927631461004457806387d817891461006d578063f43aab63146100ad578063fd84cb97146100c9575b600080fd5b34801561005057600080fd5b5061006b60048036038101906100669190610827565b6100f2565b005b34801561007957600080fd5b50610094600480360381019061008f9190610827565b610350565b6040516100a494939291906108bf565b60405180910390f35b6100c760048036038101906100c29190610930565b6103cd565b005b3480156100d557600080fd5b506100f060048036038101906100eb9190610827565b6105f0565b005b600080600083815260200190815260200160002090508060000160009054906101000a900473ffffffffffffffffffffffffffffffffffffffff1673ffffffffffffffffffffffffffffffffffffffff163373ffffffffffffffffffffffffffffffffffffffff161461019a576040517f08c379a0000000000000000000000000000000000000000000000000000000008152600401610191906109cd565b60405180910390fd5b8060030160009054906101000a900460ff16156101ec576040517f08c379a00000000000000000000000000000000000000000000000000000000081526004016101e390610a39565b60405180910390fd5b8060000160009054906101000a900473ffffffffffffffffffffffffffffffffffffffff1673ffffffffffffffffffffffffffffffffffffffff166108fc82600201549081150290604051600060405180830381858888f1935050505015801561025a573d6000803e3d6000fd5b50600080838152602001908152602001600020600080820160006101000a81549073ffffffffffffffffffffffffffffffffffffffff02191690556001820160006101000a81549073ffffffffffffffffffffffffffffffffffffffff021916905560028201600090556003820160006101000a81549060ff021916905550508060000160009054906101000a900473ffffffffffffffffffffffffffffffffffffffff1673ffffffffffffffffffffffffffffffffffffffff167f515a18b1fcc21296047a050786b19a82acc044529bbdf44eb81b7488b6110623836040516103449190610a59565b60405180910390a25050565b60006020528060005260406000206000915090508060000160009054906101000a900473ffffffffffffffffffffffffffffffffffffffff16908060010160009054906101000a900473ffffffffffffffffffffffffffffffffffffffff16908060020154908060030160009054906101000a900460ff16905084565b60003411610410576040517f08c379a000000000000000000000000000000000000000000000000000000000815260040161040790610ac0565b60405180910390fd5b60008060008481526020019081526020016000206002015414610468576040517f08c379a000000000000000000000000000000000000000000000000000000000815260040161045f90610b2c565b60405180910390fd5b60405180608001604052803373ffffffffffffffffffffffffffffffffffffffff1681526020018273ffffffffffffffffffffffffffffffffffffffff1681526020013481526020016000151581525060008084815260200190815260200160002060008201518160000160006101000a81548173ffffffffffffffffffffffffffffffffffffffff021916908373ffffffffffffffffffffffffffffffffffffffff16021790555060208201518160010160006101000a81548173ffffffffffffffffffffffffffffffffffffffff021916908373ffffffffffffffffffffffffffffffffffffffff1602179055506040820151816002015560608201518160030160006101000a81548160ff0219169083151502179055509050508073ffffffffffffffffffffffffffffffffffffffff163373ffffffffffffffffffffffffffffffffffffffff167fe064501ff0c8345e3c252ac92add47e0e28225460e48f354750dfda9d72df75184346040516105e4929190610b4c565b60405180910390a35050565b600080600083815260200190815260200160002090508060000160009054906101000a900473ffffffffffffffffffffffffffffffffffffffff1673ffffffffffffffffffffffffffffffffffffffff163373ffffffffffffffffffffffffffffffffffffffff1614610698576040517f08c379a000000000000000000000000000000000000000000000000000000000815260040161068f90610bc1565b60405180910390fd5b8060030160009054906101000a900460ff16156106ea576040517f08c379a00000000000000000000000000000000000000000000000000000000081526004016106e190610a39565b60405180910390fd5b8060010160009054906101000a900473ffffffffffffffffffffffffffffffffffffffff1673ffffffffffffffffffffffffffffffffffffffff166108fc82600201549081150290604051600060405180830381858888f19350505050158015610758573d6000803e3d6000fd5b5060018160030160006101000a81548160ff0219169083151502179055508060010160009054906101000a900473ffffffffffffffffffffffffffffffffffffffff1673ffffffffffffffffffffffffffffffffffffffff167f4156924bd7e340b19303af17bf5323d66fae5dc16f350319092e0839c8543683836040516107e09190610a59565b60405180910390a25050565b600080fd5b6000819050919050565b610804816107f1565b811461080f57600080fd5b50565b600081359050610821816107fb565b92915050565b60006020828403121561083d5761083c6107ec565b5b600061084b84828501610812565b91505092915050565b600073ffffffffffffffffffffffffffffffffffffffff82169050919050565b600061087f82610854565b9050919050565b61088f81610874565b82525050565b61089e816107f1565b82525050565b60008115159050919050565b6108b9816108a4565b82525050565b60006080820190506108d46000830187610886565b6108e16020830186610886565b6108ee6040830185610895565b6108fb60608301846108b0565b95945050505050565b61090d81610874565b811461091857600080fd5b50565b60008135905061092a81610904565b92915050565b60008060408385031215610947576109466107ec565b5b600061095585828601610812565b92505060206109668582860161091b565b9150509250929050565b600082825260208201905092915050565b7f4f6e6c792062757965722063616e207265717565737420726566756e642e0000600082015250565b60006109b7601e83610970565b91506109c282610981565b602082019050919050565b600060208201905081810360008301526109e6816109aa565b9050919050565b7f416c726561647920706169642e00000000000000000000000000000000000000600082015250565b6000610a23600d83610970565b9150610a2e826109ed565b602082019050919050565b60006020820190508181036000830152610a5281610a16565b9050919050565b6000602082019050610a6e6000830184610895565b92915050565b7f4d7573742073656e64207061796d656e742e0000000000000000000000000000600082015250565b6000610aaa601283610970565b9150610ab582610a74565b602082019050919050565b60006020820190508181036000830152610ad981610a9d565b9050919050565b7f5061796d656e7420616c7265616479206578697374732e000000000000000000600082015250565b6000610b16601783610970565b9150610b2182610ae0565b602082019050919050565b60006020820190508181036000830152610b4581610b09565b9050919050565b6000604082019050610b616000830185610895565b610b6e6020830184610895565b9392505050565b7f4f6e6c792062757965722063616e20636f6e6669726d2e000000000000000000600082015250565b6000610bab601783610970565b9150610bb682610b75565b602082019050919050565b60006020820190508181036000830152610bda81610b9e565b905091905056fea26469706673582212208ab65c6961bdf4b073acc296afbeaddc1309301f764521dc63f8a42b58ffe33664736f6c634300081c0033",
  "linkReferences": {},
  "deployedLinkReferences": {}
}